{
  "address": "0xe7f1725E7734CE288F8367e1Bb143E90bb3F0512",
  "abi": [
    {
      "inputs": [
        {
          "internalType": "address",
          "name": "priceFeedAddress",
          "type": "address"
        }
      ],
      "stateMutability": "nonpayable",
      "type": "constructor"
    },
    {
      "inputs": [],
      "name": "NotOwner",
      "type": "error"
    },
    {
      "stateMutability": "payable",
      "type": "fallback"
    },
    {
      "inputs": [],
      "name": "MINIMUM_USD",
      "outputs": [
        {
          "internalType": "uint256",
          "name": "",
          "type": "uint256"
        }
      ],
      "stateMutability": "view",
      "type": "function"
    },
    {
      "inputs": [],
      "name": "cheapWithdraw",
      "outputs": [],
      "stateMutability": "payable",
      "type": "function"
    },
    {
      "inputs": [],
      "name": "fund",
      "outputs": [],
      "stateMutability": "payable",
      "type": "function"
    },
    {
      "inputs": [
        {
          "internalType": "uint256",
          "name": "index",
          "type": "uint256"
        }
      ],
      "name": "getFunder",
      "outputs": [
        {
          "internalType": "address",
          "name": "",
          "type": "address"
        }
      ],
      "stateMutability": "view",
      "type": "function"
    },
    {
      "inputs": [],
      "name": "getOwner",
      "outputs": [
        {
          "internalType": "address",
          "name": "",
          "type": "address"
        }
      ],
      "stateMutability": "view",
      "type": "function"
    },
    {
      "inputs": [],
      "name": "i_owner",
      "outputs": [
        {
          "internalType": "address",
          "name": "",
          "type": "address"
        }
      ],
      "stateMutability": "view",
      "type": "function"
    },
    {
      "inputs": [
        {
          "internalType": "address",
          "name": "",
          "type": "address"
        }
      ],
      "name": "s_addressToAmountFunded",
      "outputs": [
        {
          "internalType": "uint256",
          "name": "",
          "type": "uint256"
        }
      ],
      "stateMutability": "view",
      "type": "function"
    },
    {
      "inputs": [
        {
          "internalType": "uint256",
          "name": "",
          "type": "uint256"
        }
      ],
      "name": "s_funders",
      "outputs": [
        {
          "internalType": "address",
          "name": "",
          "type": "address"
        }
      ],
      "stateMutability": "view",
      "type": "function"
    },
    {
      "inputs": [],
      "name": "s_priceFeed",
      "outputs": [
        {
          "internalType": "contract AggregatorV3Interface",
          "name": "",
          "type": "address"
        }
      ],
      "stateMutability": "view",
      "type": "function"
    },
    {
      "inputs": [],
      "name": "withdraw",
      "outputs": [],
      "stateMutability": "nonpayable",
      "type": "function"
    },
    {
      "stateMutability": "payable",
      "type": "receive"
    }
  ],
  "transactionHash": "0x3e4f4f6dafdd8882903675d782f50cd9466920d364b8ae1335b677288fab64b5",
  "args": [
    "0x5FbDB2315678afecb367f032d93F642f64180aa3"
  ],
  "numDeployments": 1,
  "solcInputHash": "fa92d9ed098ae1ab11e81db1ecb32761",
  "bytecode": "0x60a06040523480156200001157600080fd5b50604051620013ac380380620013ac833981810160405281019062000037919062000120565b3373ffffffffffffffffffffffffffffffffffffffff1660808173ffffffffffffffffffffffffffffffffffffffff1660601b8152505080600260006101000a81548173ffffffffffffffffffffffffffffffffffffffff021916908373ffffffffffffffffffffffffffffffffffffffff1602179055505062000152565b600080fd5b600073ffffffffffffffffffffffffffffffffffffffff82169050919050565b6000620000e882620000bb565b9050919050565b620000fa81620000db565b81146200010657600080fd5b50565b6000815190506200011a81620000ef565b92915050565b600060208284031215620001395762000138620000b6565b5b6000620001498482850162000109565b91505092915050565b60805160601c61122662000186600039600081816103b60152818161065a015281816108e8015261095601526112266000f3fe6080604052600436106100955760003560e01c80636b69a592116100595780636b69a59214610174578063893d20e81461019f578063b60d4288146101ca578063d7b4750c146101d4578063dba6335f14610211576100a4565b80630ec3b027146100ae5780631bf6132d146100d9578063206ddccd146101165780633ccfd60b1461012057806354861af714610137576100a4565b366100a4576100a261023c565b005b6100ac61023c565b005b3480156100ba57600080fd5b506100c3610376565b6040516100d09190610b7a565b60405180910390f35b3480156100e557600080fd5b5061010060048036038101906100fb9190610bd8565b61039c565b60405161010d9190610c1e565b60405180910390f35b61011e6103b4565b005b34801561012c57600080fd5b50610135610658565b005b34801561014357600080fd5b5061015e60048036038101906101599190610c65565b610898565b60405161016b9190610ca1565b60405180910390f35b34801561018057600080fd5b506101896108d7565b6040516101969190610c1e565b60405180910390f35b3480156101ab57600080fd5b506101b46108e4565b6040516101c19190610ca1565b60405180910390f35b6101d261023c565b005b3480156101e057600080fd5b506101fb60048036038101906101f69190610c65565b61090c565b6040516102089190610ca1565b60405180910390f35b34801561021d57600080fd5b50610226610954565b6040516102339190610ca1565b60405180910390f35b6802b5e3af16b188000061027b600260009054906101000a900473ffffffffffffffffffffffffffffffffffffffff163461097890919063ffffffff16565b10156102bc576040517f08c379a00000000000000000000000000000000000000000000000000000000081526004016102b390610d19565b60405180910390fd5b346000803373ffffffffffffffffffffffffffffffffffffffff1673ffffffffffffffffffffffffffffffffffffffff168152602001908152602001600020600082825461030a9190610d68565b925050819055506001339080600181540180825580915050600190039060005260206000200160009091909190916101000a81548173ffffffffffffffffffffffffffffffffffffffff021916908373ffffffffffffffffffffffffffffffffffffffff160217905550565b600260009054906101000a900473ffffffffffffffffffffffffffffffffffffffff1681565b60006020528060005260406000206000915090505481565b7f000000000000000000000000000000000000000000000000000000000000000073ffffffffffffffffffffffffffffffffffffffff163373ffffffffffffffffffffffffffffffffffffffff1614610439576040517f30cd747100000000000000000000000000000000000000000000000000000000815260040160405180910390fd5b600060018054806020026020016040519081016040528092919081815260200182805480156104bd57602002820191906000526020600020905b8160009054906101000a900473ffffffffffffffffffffffffffffffffffffffff1673ffffffffffffffffffffffffffffffffffffffff1681526020019060010190808311610473575b5050505050905060005b81518110156105475760008282815181106104e5576104e4610dbe565b5b6020026020010151905060008060008373ffffffffffffffffffffffffffffffffffffffff1673ffffffffffffffffffffffffffffffffffffffff1681526020019081526020016000208190555050808061053f90610ded565b9150506104c7565b50600067ffffffffffffffff81111561056357610562610e36565b5b6040519080825280602002602001820160405280156105915781602001602082028036833780820191505090505b50600190805190602001906105a7929190610a54565b5060003373ffffffffffffffffffffffffffffffffffffffff16476040516105ce90610e96565b60006040518083038185875af1925050503d806000811461060b576040519150601f19603f3d011682016040523d82523d6000602084013e610610565b606091505b5050905080610654576040517f08c379a000000000000000000000000000000000000000000000000000000000815260040161064b90610ef7565b60405180910390fd5b5050565b7f000000000000000000000000000000000000000000000000000000000000000073ffffffffffffffffffffffffffffffffffffffff163373ffffffffffffffffffffffffffffffffffffffff16146106dd576040517f30cd747100000000000000000000000000000000000000000000000000000000815260040160405180910390fd5b60005b6001805490508110156107885760006001828154811061070357610702610dbe565b5b9060005260206000200160009054906101000a900473ffffffffffffffffffffffffffffffffffffffff16905060008060008373ffffffffffffffffffffffffffffffffffffffff1673ffffffffffffffffffffffffffffffffffffffff1681526020019081526020016000208190555050808061078090610ded565b9150506106e0565b50600067ffffffffffffffff8111156107a4576107a3610e36565b5b6040519080825280602002602001820160405280156107d25781602001602082028036833780820191505090505b50600190805190602001906107e8929190610a54565b5060003373ffffffffffffffffffffffffffffffffffffffff164760405161080f90610e96565b60006040518083038185875af1925050503d806000811461084c576040519150601f19603f3d011682016040523d82523d6000602084013e610851565b606091505b5050905080610895576040517f08c379a000000000000000000000000000000000000000000000000000000000815260040161088c90610ef7565b60405180910390fd5b50565b600181815481106108a857600080fd5b906000526020600020016000915054906101000a900473ffffffffffffffffffffffffffffffffffffffff1681565b6802b5e3af16b188000081565b60007f0000000000000000000000000000000000000000000000000000000000000000905090565b60006001828154811061092257610921610dbe565b5b9060005260206000200160009054906101000a900473ffffffffffffffffffffffffffffffffffffffff169050919050565b7f000000000000000000000000000000000000000000000000000000000000000081565b600080610984836109b4565b90506000670de0b6b3a7640000858361099d9190610f17565b6109a79190610fa0565b9050809250505092915050565b6000808273ffffffffffffffffffffffffffffffffffffffff1663feaf968c6040518163ffffffff1660e01b815260040160a06040518083038186803b1580156109fd57600080fd5b505afa158015610a11573d6000803e3d6000fd5b505050506040513d601f19601f82011682018060405250810190610a35919061105e565b5050509150506402540be40081610a4c91906110d9565b915050919050565b828054828255906000526020600020908101928215610acd579160200282015b82811115610acc5782518260006101000a81548173ffffffffffffffffffffffffffffffffffffffff021916908373ffffffffffffffffffffffffffffffffffffffff16021790555091602001919060010190610a74565b5b509050610ada9190610ade565b5090565b5b80821115610af7576000816000905550600101610adf565b5090565b600073ffffffffffffffffffffffffffffffffffffffff82169050919050565b6000819050919050565b6000610b40610b3b610b3684610afb565b610b1b565b610afb565b9050919050565b6000610b5282610b25565b9050919050565b6000610b6482610b47565b9050919050565b610b7481610b59565b82525050565b6000602082019050610b8f6000830184610b6b565b92915050565b600080fd5b6000610ba582610afb565b9050919050565b610bb581610b9a565b8114610bc057600080fd5b50565b600081359050610bd281610bac565b92915050565b600060208284031215610bee57610bed610b95565b5b6000610bfc84828501610bc3565b91505092915050565b6000819050919050565b610c1881610c05565b82525050565b6000602082019050610c336000830184610c0f565b92915050565b610c4281610c05565b8114610c4d57600080fd5b50565b600081359050610c5f81610c39565b92915050565b600060208284031215610c7b57610c7a610b95565b5b6000610c8984828501610c50565b91505092915050565b610c9b81610b9a565b82525050565b6000602082019050610cb66000830184610c92565b92915050565b600082825260208201905092915050565b7f596f75206e65656420746f207370656e64206d6f726520455448210000000000600082015250565b6000610d03601b83610cbc565b9150610d0e82610ccd565b602082019050919050565b60006020820190508181036000830152610d3281610cf6565b9050919050565b7f4e487b7100000000000000000000000000000000000000000000000000000000600052601160045260246000fd5b6000610d7382610c05565b9150610d7e83610c05565b9250827fffffffffffffffffffffffffffffffffffffffffffffffffffffffffffffffff03821115610db357610db2610d39565b5b828201905092915050565b7f4e487b7100000000000000000000000000000000000000000000000000000000600052603260045260246000fd5b6000610df882610c05565b91507fffffffffffffffffffffffffffffffffffffffffffffffffffffffffffffffff821415610e2b57610e2a610d39565b5b600182019050919050565b7f4e487b7100000000000000000000000000000000000000000000000000000000600052604160045260246000fd5b600081905092915050565b50565b6000610e80600083610e65565b9150610e8b82610e70565b600082019050919050565b6000610ea182610e73565b9150819050919050565b7f43616c6c206661696c6564000000000000000000000000000000000000000000600082015250565b6000610ee1600b83610cbc565b9150610eec82610eab565b602082019050919050565b60006020820190508181036000830152610f1081610ed4565b9050919050565b6000610f2282610c05565b9150610f2d83610c05565b9250817fffffffffffffffffffffffffffffffffffffffffffffffffffffffffffffffff0483118215151615610f6657610f65610d39565b5b828202905092915050565b7f4e487b7100000000000000000000000000000000000000000000000000000000600052601260045260246000fd5b6000610fab82610c05565b9150610fb683610c05565b925082610fc657610fc5610f71565b5b828204905092915050565b600069ffffffffffffffffffff82169050919050565b610ff081610fd1565b8114610ffb57600080fd5b50565b60008151905061100d81610fe7565b92915050565b6000819050919050565b61102681611013565b811461103157600080fd5b50565b6000815190506110438161101d565b92915050565b60008151905061105881610c39565b92915050565b600080600080600060a0868803121561107a57611079610b95565b5b600061108888828901610ffe565b955050602061109988828901611034565b94505060406110aa88828901611049565b93505060606110bb88828901611049565b92505060806110cc88828901610ffe565b9150509295509295909350565b60006110e482611013565b91506110ef83611013565b9250827f7fffffffffffffffffffffffffffffffffffffffffffffffffffffffffffffff048211600084136000841316161561112e5761112d610d39565b5b817f8000000000000000000000000000000000000000000000000000000000000000058312600084126000841316161561116b5761116a610d39565b5b827f800000000000000000000000000000000000000000000000000000000000000005821260008413600084121616156111a8576111a7610d39565b5b827f7fffffffffffffffffffffffffffffffffffffffffffffffffffffffffffffff05821260008412600084121616156111e5576111e4610d39565b5b82820290509291505056fea264697066735822122084adce4d099fb959191f6759407cfb2e9ce2ee2c234ac90577f5718e497342d664736f6c63430008080033",
  "devdoc": {
    "kind": "dev",
    "methods": {},
    "version": 1
  },
  "userdoc": {
    "kind": "user",
    "methods": {},
    "version": 1
  },
  "storageLayout": {
    "storage": [
      {
        "astId": 58,
        "contract": "contracts/FundMe.sol:FundMe",
        "label": "s_addressToAmountFunded",
        "offset": 0,
        "slot": "0",
        "type": "t_mapping(t_address,t_uint256)"
      },
      {
        "astId": 61,
        "contract": "contracts/FundMe.sol:FundMe",
        "label": "s_funders",
        "offset": 0,
        "slot": "1",
        "type": "t_array(t_address)dyn_storage"
      },
      {
        "astId": 73,
        "contract": "contracts/FundMe.sol:FundMe",
        "label": "s_priceFeed",
        "offset": 0,
        "slot": "2",
        "type": "t_contract(AggregatorV3Interface)45"
      }
    ],
    "types": {
      "t_address": {
        "encoding": "inplace",
        "label": "address",
        "numberOfBytes": "20"
      },
      "t_array(t_address)dyn_storage": {
        "base": "t_address",
        "encoding": "dynamic_array",
        "label": "address[]",
        "numberOfBytes": "32"
      },
      "t_contract(AggregatorV3Interface)45": {
        "encoding": "inplace",
        "label": "contract AggregatorV3Interface",
        "numberOfBytes": "20"
      },
      "t_mapping(t_address,t_uint256)": {
        "encoding": "mapping",
        "key": "t_address",
        "label": "mapping(address => uint256)",
        "numberOfBytes": "32",
        "value": "t_uint256"
      },
      "t_uint256": {
        "encoding": "inplace",
        "label": "uint256",
        "numberOfBytes": "32"
      }
    }
  }
}